{
  "contractName": "Lottery",
  "abi": [
    {
      "inputs": [],
      "stateMutability": "nonpayable",
      "type": "constructor"
    },
    {
      "anonymous": false,
      "inputs": [
        {
          "indexed": true,
          "internalType": "address",
          "name": "winner",
          "type": "address"
        },
        {
          "indexed": false,
          "internalType": "uint256",
          "name": "balance",
          "type": "uint256"
        }
      ],
      "name": "PickWinner",
      "type": "event"
    },
    {
      "inputs": [],
      "name": "isGameEnded",
      "outputs": [
        {
          "internalType": "bool",
          "name": "",
          "type": "bool"
        }
      ],
      "stateMutability": "view",
      "type": "function",
      "constant": true
    },
    {
      "inputs": [],
      "name": "isReadyPickWinner",
      "outputs": [
        {
          "internalType": "bool",
          "name": "",
          "type": "bool"
        }
      ],
      "stateMutability": "view",
      "type": "function",
      "constant": true
    },
    {
      "inputs": [],
      "name": "manager",
      "outputs": [
        {
          "internalType": "address",
          "name": "",
          "type": "address"
        }
      ],
      "stateMutability": "view",
      "type": "function",
      "constant": true
    },
    {
      "inputs": [],
      "name": "max_ticket_price",
      "outputs": [
        {
          "internalType": "uint256",
          "name": "",
          "type": "uint256"
        }
      ],
      "stateMutability": "view",
      "type": "function",
      "constant": true
    },
    {
      "inputs": [
        {
          "internalType": "uint256",
          "name": "",
          "type": "uint256"
        }
      ],
      "name": "players",
      "outputs": [
        {
          "internalType": "address",
          "name": "",
          "type": "address"
        }
      ],
      "stateMutability": "view",
      "type": "function",
      "constant": true
    },
    {
      "inputs": [],
      "name": "startedTime",
      "outputs": [
        {
          "internalType": "uint256",
          "name": "",
          "type": "uint256"
        }
      ],
      "stateMutability": "view",
      "type": "function",
      "constant": true
    },
    {
      "inputs": [],
      "name": "target_amount",
      "outputs": [
        {
          "internalType": "uint256",
          "name": "",
          "type": "uint256"
        }
      ],
      "stateMutability": "view",
      "type": "function",
      "constant": true
    },
    {
      "inputs": [],
      "name": "ticket_price",
      "outputs": [
        {
          "internalType": "uint256",
          "name": "",
          "type": "uint256"
        }
      ],
      "stateMutability": "view",
      "type": "function",
      "constant": true
    },
    {
      "inputs": [
        {
          "internalType": "uint256",
          "name": "",
          "type": "uint256"
        }
      ],
      "name": "winners",
      "outputs": [
        {
          "internalType": "address",
          "name": "",
          "type": "address"
        }
      ],
      "stateMutability": "view",
      "type": "function",
      "constant": true
    },
    {
      "inputs": [],
      "name": "balanceInPool",
      "outputs": [
        {
          "internalType": "uint256",
          "name": "",
          "type": "uint256"
        }
      ],
      "stateMutability": "view",
      "type": "function",
      "constant": true
    },
    {
      "inputs": [],
      "name": "enter",
      "outputs": [],
      "stateMutability": "payable",
      "type": "function",
      "payable": true
    },
    {
      "inputs": [
        {
          "internalType": "uint256",
          "name": "_ticketPrice",
          "type": "uint256"
        },
        {
          "internalType": "uint256",
          "name": "_ticketAmount",
          "type": "uint256"
        }
      ],
      "name": "initialize",
      "outputs": [],
      "stateMutability": "nonpayable",
      "type": "function"
    },
    {
      "inputs": [],
      "name": "pickWinner",
      "outputs": [],
      "stateMutability": "nonpayable",
      "type": "function"
    },
    {
      "inputs": [],
      "name": "getPlayers",
      "outputs": [
        {
          "internalType": "address[]",
          "name": "",
          "type": "address[]"
        }
      ],
      "stateMutability": "view",
      "type": "function",
      "constant": true
    },
    {
      "inputs": [],
      "name": "getWinners",
      "outputs": [
        {
          "internalType": "address[]",
          "name": "",
          "type": "address[]"
        }
      ],
      "stateMutability": "view",
      "type": "function",
      "constant": true
    },
    {
      "inputs": [],
      "name": "getPlayerNumber",
      "outputs": [
        {
          "internalType": "uint256",
          "name": "",
          "type": "uint256"
        }
      ],
      "stateMutability": "view",
      "type": "function",
      "constant": true
    },
    {
      "inputs": [],
      "name": "getStartedTime",
      "outputs": [
        {
          "internalType": "uint256",
          "name": "",
          "type": "uint256"
        }
      ],
      "stateMutability": "view",
      "type": "function",
      "constant": true
    },
    {
      "inputs": [],
      "name": "getPercent",
      "outputs": [
        {
          "internalType": "uint256",
          "name": "",
          "type": "uint256"
        }
      ],
      "stateMutability": "view",
      "type": "function",
      "constant": true
    }
  ],
  "bytecode": "0x60806040526001600660006101000a81548160ff0219169083151502179055506000600660016101000a81548160ff021916908315150217905550600060075534801561004b57600080fd5b50336000806101000a81548173ffffffffffffffffffffffffffffffffffffffff021916908373ffffffffffffffffffffffffffffffffffffffff1602179055506001600660006101000a81548160ff02191690831515021790555061151b806100b66000396000f3fe6080604052600436106101095760003560e01c80638b5b9ccc11610095578063cebc6ad511610064578063cebc6ad51461033b578063df15c37e14610366578063e4a3011614610391578063e97dcb62146103ba578063f71d96cb146103c457610109565b80638b5b9ccc1461027d578063a2fb1175146102a8578063a8078b7a146102e5578063c085ecc81461031057610109565b80632a6dd8c9116100dc5780632a6dd8c9146101ba578063481c6a75146101e55780635d495aea1461021057806366c31db71461022757806381e0ffae1461025257610109565b80630b5cd1121461010e5780630efbaf0c1461013957806313eaac6c1461016457806319d41c691461018f575b600080fd5b34801561011a57600080fd5b50610123610401565b6040516101309190611033565b60405180910390f35b34801561014557600080fd5b5061014e610414565b60405161015b91906110ee565b60405180910390f35b34801561017057600080fd5b5061017961041a565b60405161018691906110ee565b60405180910390f35b34801561019b57600080fd5b506101a4610427565b6040516101b191906110ee565b60405180910390f35b3480156101c657600080fd5b506101cf61042d565b6040516101dc91906110ee565b60405180910390f35b3480156101f157600080fd5b506101fa6104a4565b6040516102079190610ff6565b60405180910390f35b34801561021c57600080fd5b506102256104c8565b005b34801561023357600080fd5b5061023c6107cd565b60405161024991906110ee565b60405180910390f35b34801561025e57600080fd5b506102676107d5565b60405161027491906110ee565b60405180910390f35b34801561028957600080fd5b506102926107db565b60405161029f9190611011565b60405180910390f35b3480156102b457600080fd5b506102cf60048036038101906102ca9190610d54565b610869565b6040516102dc9190610ff6565b60405180910390f35b3480156102f157600080fd5b506102fa6108a8565b60405161030791906110ee565b60405180910390f35b34801561031c57600080fd5b506103256108bd565b6040516103329190611033565b60405180910390f35b34801561034757600080fd5b506103506108d0565b60405161035d91906110ee565b60405180910390f35b34801561037257600080fd5b5061037b6108d6565b6040516103889190611011565b60405180910390f35b34801561039d57600080fd5b506103b860048036038101906103b39190610d7d565b610964565b005b6103c2610a90565b005b3480156103d057600080fd5b506103eb60048036038101906103e69190610d54565b610c23565b6040516103f89190610ff6565b60405180910390f35b600660019054906101000a900460ff1681565b60055481565b6000600180549050905090565b60045481565b6000600660009054906101000a900460ff161561044d57600090506104a1565b600660019054906101000a900460ff161561046b57606490506104a1565b61047361041a565b600354610480919061118b565b606461048a61041a565b6104949190611212565b61049e91906111e1565b90505b90565b60008054906101000a900473ffffffffffffffffffffffffffffffffffffffff1681565b60008054906101000a900473ffffffffffffffffffffffffffffffffffffffff1673ffffffffffffffffffffffffffffffffffffffff163373ffffffffffffffffffffffffffffffffffffffff1614610556576040517f08c379a000000000000000000000000000000000000000000000000000000000815260040161054d906110ae565b60405180910390fd5b600660019054906101000a900460ff166105a5576040517f08c379a000000000000000000000000000000000000000000000000000000000815260040161059c9061104e565b60405180910390fd5b60006001805490506105b5610c62565b6105bf919061132c565b90506000600182815481106105fd577f4e487b7100000000000000000000000000000000000000000000000000000000600052603260045260246000fd5b9060005260206000200160009054906101000a900473ffffffffffffffffffffffffffffffffffffffff169050600067ffffffffffffffff81111561066b577f4e487b7100000000000000000000000000000000000000000000000000000000600052604160045260246000fd5b6040519080825280602002602001820160405280156106995781602001602082028036833780820191505090505b50600190805190602001906106af929190610c98565b5060004790508173ffffffffffffffffffffffffffffffffffffffff166108fc479081150290604051600060405180830381858888f193505050501580156106fb573d6000803e3d6000fd5b506001600660006101000a81548160ff0219169083151502179055506002829080600181540180825580915050600190039060005260206000200160009091909190916101000a81548173ffffffffffffffffffffffffffffffffffffffff021916908373ffffffffffffffffffffffffffffffffffffffff1602179055508173ffffffffffffffffffffffffffffffffffffffff167fa11a9e464dd09a0c07406d9579a023cafcdba189a4855adb41614aa19b7f26e0826040516107c091906110ee565b60405180910390a2505050565b600047905090565b60035481565b6060600180548060200260200160405190810160405280929190818152602001828054801561085f57602002820191906000526020600020905b8160009054906101000a900473ffffffffffffffffffffffffffffffffffffffff1673ffffffffffffffffffffffffffffffffffffffff1681526020019060010190808311610815575b5050505050905090565b6002818154811061087957600080fd5b906000526020600020016000915054906101000a900473ffffffffffffffffffffffffffffffffffffffff1681565b6000600754426108b8919061126c565b905090565b600660009054906101000a900460ff1681565b60075481565b6060600280548060200260200160405190810160405280929190818152602001828054801561095a57602002820191906000526020600020905b8160009054906101000a900473ffffffffffffffffffffffffffffffffffffffff1673ffffffffffffffffffffffffffffffffffffffff1681526020019060010190808311610910575b5050505050905090565b60008054906101000a900473ffffffffffffffffffffffffffffffffffffffff1673ffffffffffffffffffffffffffffffffffffffff163373ffffffffffffffffffffffffffffffffffffffff16146109f2576040517f08c379a00000000000000000000000000000000000000000000000000000000081526004016109e9906110ae565b60405180910390fd5b600660009054906101000a900460ff16610a41576040517f08c379a0000000000000000000000000000000000000000000000000000000008152600401610a389061104e565b60405180910390fd5b4260078190555081600481905550806003819055506000600660006101000a81548160ff0219169083151502179055506000600660016101000a81548160ff0219169083151502179055505050565b600660009054906101000a900460ff16158015610aba5750600660019054906101000a900460ff16155b610af9576040517f08c379a0000000000000000000000000000000000000000000000000000000008152600401610af09061106e565b60405180910390fd5b6004543414610b3d576040517f08c379a0000000000000000000000000000000000000000000000000000000008152600401610b34906110ce565b60405180910390fd5b600060035411610b82576040517f08c379a0000000000000000000000000000000000000000000000000000000008152600401610b799061108e565b60405180910390fd5b6001339080600181540180825580915050600190039060005260206000200160009091909190916101000a81548173ffffffffffffffffffffffffffffffffffffffff021916908373ffffffffffffffffffffffffffffffffffffffff1602179055506001600354610bf4919061126c565b60038190555060006003541415610c21576001600660016101000a81548160ff0219169083151502179055505b565b60018181548110610c3357600080fd5b906000526020600020016000915054906101000a900473ffffffffffffffffffffffffffffffffffffffff1681565b600044426001604051602001610c7a93929190610fbd565b6040516020818303038152906040528051906020012060001c905090565b828054828255906000526020600020908101928215610d11579160200282015b82811115610d105782518260006101000a81548173ffffffffffffffffffffffffffffffffffffffff021916908373ffffffffffffffffffffffffffffffffffffffff16021790555091602001919060010190610cb8565b5b509050610d1e9190610d22565b5090565b5b80821115610d3b576000816000905550600101610d23565b5090565b600081359050610d4e816114ce565b92915050565b600060208284031215610d6657600080fd5b6000610d7484828501610d3f565b91505092915050565b60008060408385031215610d9057600080fd5b6000610d9e85828601610d3f565b9250506020610daf85828601610d3f565b9150509250929050565b6000610dc58383610de9565b60208301905092915050565b6000610ddd8383610e07565b60208301905092915050565b610df2816112c0565b82525050565b610e01816112c0565b82525050565b610e10816112c0565b82525050565b6000610e218261112e565b610e2b818561115e565b9350610e3683611109565b8060005b83811015610e67578151610e4e8882610db9565b9750610e5983611144565b925050600181019050610e3a565b5085935050505092915050565b6000610e7f82611139565b610e89818561116f565b9350610e9483611119565b8060005b83811015610ecc57610ea9826113bb565b610eb38882610dd1565b9750610ebe83611151565b925050600181019050610e98565b5085935050505092915050565b610ee2816112d2565b82525050565b6000610ef560148361117a565b9150610f00826113db565b602082019050919050565b6000610f1860198361117a565b9150610f2382611404565b602082019050919050565b6000610f3b601f8361117a565b9150610f468261142d565b602082019050919050565b6000610f5e60178361117a565b9150610f6982611456565b602082019050919050565b6000610f81602b8361117a565b9150610f8c8261147f565b604082019050919050565b610fa0816112fe565b82525050565b610fb7610fb2826112fe565b611322565b82525050565b6000610fc98286610fa6565b602082019150610fd98285610fa6565b602082019150610fe98284610e74565b9150819050949350505050565b600060208201905061100b6000830184610df8565b92915050565b6000602082019050818103600083015261102b8184610e16565b905092915050565b60006020820190506110486000830184610ed9565b92915050565b6000602082019050818103600083015261106781610ee8565b9050919050565b6000602082019050818103600083015261108781610f0b565b9050919050565b600060208201905081810360008301526110a781610f2e565b9050919050565b600060208201905081810360008301526110c781610f51565b9050919050565b600060208201905081810360008301526110e781610f74565b9050919050565b60006020820190506111036000830184610f97565b92915050565b6000819050602082019050919050565b60008190508160005260206000209050919050565b600081519050919050565b600081549050919050565b6000602082019050919050565b6000600182019050919050565b600082825260208201905092915050565b600081905092915050565b600082825260208201905092915050565b6000611196826112fe565b91506111a1836112fe565b9250827fffffffffffffffffffffffffffffffffffffffffffffffffffffffffffffffff038211156111d6576111d561135d565b5b828201905092915050565b60006111ec826112fe565b91506111f7836112fe565b9250826112075761120661138c565b5b828204905092915050565b600061121d826112fe565b9150611228836112fe565b9250817fffffffffffffffffffffffffffffffffffffffffffffffffffffffffffffffff04831182151516156112615761126061135d565b5b828202905092915050565b6000611277826112fe565b9150611282836112fe565b9250828210156112955761129461135d565b5b828203905092915050565b600073ffffffffffffffffffffffffffffffffffffffff82169050919050565b60006112cb826112de565b9050919050565b60008115159050919050565b600073ffffffffffffffffffffffffffffffffffffffff82169050919050565b6000819050919050565b600061131b611316836113ce565b6112a0565b9050919050565b6000819050919050565b6000611337826112fe565b9150611342836112fe565b9250826113525761135161138c565b5b828206905092915050565b7f4e487b7100000000000000000000000000000000000000000000000000000000600052601160045260246000fd5b7f4e487b7100000000000000000000000000000000000000000000000000000000600052601260045260246000fd5b60006113c78254611308565b9050919050565b60008160001c9050919050565b7f47616d652069732072756e6e696e67206e6f772e000000000000000000000000600082015250565b7f47616d6520686173206e6f742073746172746564207965742e00000000000000600082015250565b7f7468652077686f6c65207469636b65747320686173206265656e20736f6c6400600082015250565b7f6f6e6c79206d616e616765722068617320616363657373000000000000000000600082015250565b7f74686520707269636520646f65736e6f74206d6174636820776974682073746160008201527f6e64617264207072696365000000000000000000000000000000000000000000602082015250565b6114d7816112fe565b81146114e257600080fd5b5056fea26469706673582212204df4feda8e93b78abf877f0528a9be364ed583fbf68b94c96d5343ef6e8718d364736f6c63430008040033",
  "immutableReferences": {},
  "source": "// SPDX-License-Identifier: MIT\r\npragma solidity >=0.5.0 <0.9.0;\r\n\r\n// lottery contract\r\ncontract Lottery {\r\n    // manager address\r\n    address public manager;\r\n    // lottery players\r\n    address[] public  players;\r\n    // lottery players\r\n    address[] public  winners;\r\n\r\n    // target amount of tickets\r\n    uint public target_amount;\r\n    // price of ticket\r\n    uint public ticket_price;\r\n    // max price of ticket\r\n    uint public max_ticket_price;\r\n    // check if game finished\r\n    bool public isGameEnded = true;\r\n    bool public isReadyPickWinner = false;\r\n    uint public startedTime = 0;\r\n\r\n\r\n    // add mapping\r\n    // mapping(address => bool) playerEntered;\r\n\r\n    // add event\r\n    event PickWinner(address indexed winner, uint balance);\r\n\r\n    // constructor\r\n    constructor() {\r\n        // define administrator with deployer\r\n        manager = msg.sender;\r\n        isGameEnded = true;\r\n    }\r\n\r\n    // role middleware\r\n    modifier restricted() {\r\n        require(msg.sender == manager,\"only manager has access\");\r\n        _;\r\n    }\r\n    // middleware to check if game is on or off\r\n    modifier onGame() {\r\n        require(!isGameEnded && !isReadyPickWinner, \"Game has not started yet.\");\r\n        _;\r\n    }\r\n\r\n    // Get Balance of pool\r\n    function balanceInPool()public view returns(uint){\r\n        return address(this).balance;\r\n    }\r\n\r\n    // enter the game\r\n    function enter() public payable onGame{\r\n        // require(!playerEntered[msg.sender], \"You have already taken the ticket\");\r\n        require(msg.value == ticket_price,\"the price doesnot match with standard price\");\r\n        require(target_amount > 0, \"the whole tickets has been sold\");\r\n        players.push(msg.sender);\r\n\r\n        target_amount = target_amount - 1;\r\n        if(target_amount == 0) {\r\n            isReadyPickWinner = true;\r\n        }\r\n    }\r\n\r\n    // initialize the game\r\n    function initialize(\r\n        uint _ticketPrice,\r\n        uint _ticketAmount\r\n    ) public restricted {\r\n        // before init newly, previous game should be finished.\r\n        require(isGameEnded, \"Game is running now.\");\r\n\r\n        startedTime = block.timestamp;\r\n\r\n        ticket_price = _ticketPrice;\r\n        target_amount = _ticketAmount;\r\n        isGameEnded = false;\r\n        isReadyPickWinner = false;\r\n    }\r\n\r\n    function random() private view returns (uint) {\r\n        return uint(keccak256(abi.encodePacked(block.difficulty,block.timestamp,players)));\r\n    }\r\n\r\n    function pickWinner() public restricted {\r\n        require(isReadyPickWinner, \"Game is running now.\");\r\n\r\n        uint index = random() % players.length;\r\n        address payable winner = payable(players[index]);\r\n        players = new address[](0);\r\n        uint winBalance = address(this).balance;\r\n        winner.transfer(address(this).balance);\r\n        isGameEnded = true;\r\n        winners.push(winner);\r\n\r\n        emit PickWinner(winner, winBalance);\r\n    }\r\n\r\n    function getPlayers()public view returns(address[] memory){\r\n        return players;\r\n    }\r\n    \r\n    function getWinners()public view returns(address[] memory){\r\n        return winners;\r\n    }\r\n\r\n    function getPlayerNumber() public view returns(uint) {\r\n        return players.length;\r\n    }\r\n\r\n    function getStartedTime() public view returns(uint) {\r\n        return block.timestamp - startedTime;\r\n    }\r\n\r\n    function getPercent() public view returns(uint) {\r\n        if(isGameEnded) return 0;\r\n        if(isReadyPickWinner) return 100;\r\n        return getPlayerNumber() * 100 / (target_amount + getPlayerNumber());\r\n    }\r\n}",
  "sourcePath": "F:/workBlockchain/demo/binance/tutor1/Lottery-BSC/contracts/Lottery.sol",
  "compiler": {
    "name": "solc",
    "version": "0.8.4+commit.c7e474f2.Emscripten.clang"
  },
  "schemaVersion": "3.4.1",
  "updatedAt": "2021-05-13T06:57:00.492Z",
  "networkType": "ethereum",
  "devdoc": {
    "kind": "dev",
    "methods": {},
    "version": 1
  },
  "userdoc": {
    "kind": "user",
    "methods": {},
    "version": 1
  }
}