{
  "contractName": "Lottery",
  "abi": [
    {
      "inputs": [],
      "stateMutability": "nonpayable",
      "type": "constructor"
    },
    {
      "inputs": [],
      "name": "manager",
      "outputs": [
        {
          "internalType": "address",
          "name": "",
          "type": "address"
        }
      ],
      "stateMutability": "view",
      "type": "function",
      "constant": true
    },
    {
      "inputs": [
        {
          "internalType": "uint256",
          "name": "",
          "type": "uint256"
        }
      ],
      "name": "players",
      "outputs": [
        {
          "internalType": "address",
          "name": "",
          "type": "address"
        }
      ],
      "stateMutability": "view",
      "type": "function",
      "constant": true
    },
    {
      "inputs": [],
      "name": "balanceInPool",
      "outputs": [
        {
          "internalType": "uint256",
          "name": "",
          "type": "uint256"
        }
      ],
      "stateMutability": "view",
      "type": "function",
      "constant": true
    },
    {
      "inputs": [],
      "name": "enter",
      "outputs": [],
      "stateMutability": "payable",
      "type": "function",
      "payable": true
    },
    {
      "inputs": [],
      "name": "pickWinner",
      "outputs": [],
      "stateMutability": "nonpayable",
      "type": "function"
    },
    {
      "inputs": [],
      "name": "getPlayers",
      "outputs": [
        {
          "internalType": "address[]",
          "name": "",
          "type": "address[]"
        }
      ],
      "stateMutability": "view",
      "type": "function",
      "constant": true
    }
  ],
  "bytecode": "0x608060405234801561001057600080fd5b50336000806101000a81548173ffffffffffffffffffffffffffffffffffffffff021916908373ffffffffffffffffffffffffffffffffffffffff1602179055506106f7806100606000396000f3fe6080604052600436106100555760003560e01c8063481c6a751461005a5780635d495aea1461009b57806366c31db7146100b25780638b5b9ccc146100dd578063e97dcb6214610149578063f71d96cb14610153575b600080fd5b34801561006657600080fd5b5061006f6101b8565b604051808273ffffffffffffffffffffffffffffffffffffffff16815260200191505060405180910390f35b3480156100a757600080fd5b506100b06101dc565b005b3480156100be57600080fd5b506100c761039c565b6040518082815260200191505060405180910390f35b3480156100e957600080fd5b506100f26103a4565b6040518080602001828103825283818151815260200191508051906020019060200280838360005b8381101561013557808201518184015260208101905061011a565b505050509050019250505060405180910390f35b610151610432565b005b34801561015f57600080fd5b5061018c6004803603602081101561017657600080fd5b81019080803590602001909291905050506104f6565b604051808273ffffffffffffffffffffffffffffffffffffffff16815260200191505060405180910390f35b60008054906101000a900473ffffffffffffffffffffffffffffffffffffffff1681565b60008054906101000a900473ffffffffffffffffffffffffffffffffffffffff1673ffffffffffffffffffffffffffffffffffffffff163373ffffffffffffffffffffffffffffffffffffffff161461029d576040517f08c379a00000000000000000000000000000000000000000000000000000000081526004018080602001828103825260178152602001807f6f6e6c79206d616e61676572206861732061636365737300000000000000000081525060200191505060405180910390fd5b60006001805490506102ad610532565b816102b457fe5b0690506000600182815481106102c657fe5b9060005260206000200160009054906101000a900473ffffffffffffffffffffffffffffffffffffffff169050600067ffffffffffffffff8111801561030b57600080fd5b5060405190808252806020026020018201604052801561033a5781602001602082028036833780820191505090505b50600190805190602001906103509291906105d4565b508073ffffffffffffffffffffffffffffffffffffffff166108fc479081150290604051600060405180830381858888f19350505050158015610397573d6000803e3d6000fd5b505050565b600047905090565b6060600180548060200260200160405190810160405280929190818152602001828054801561042857602002820191906000526020600020905b8160009054906101000a900473ffffffffffffffffffffffffffffffffffffffff1673ffffffffffffffffffffffffffffffffffffffff16815260200190600101908083116103de575b5050505050905090565b662386f26fc100003411610491576040517f08c379a000000000000000000000000000000000000000000000000000000000815260040180806020018281038252602881526020018061069a6028913960400191505060405180910390fd5b6001339080600181540180825580915050600190039060005260206000200160009091909190916101000a81548173ffffffffffffffffffffffffffffffffffffffff021916908373ffffffffffffffffffffffffffffffffffffffff160217905550565b6001818154811061050357fe5b906000526020600020016000915054906101000a900473ffffffffffffffffffffffffffffffffffffffff1681565b6000444260016040516020018084815260200183815260200182805480156105af57602002820191906000526020600020905b8160009054906101000a900473ffffffffffffffffffffffffffffffffffffffff1673ffffffffffffffffffffffffffffffffffffffff1681526020019060010190808311610565575b505093505050506040516020818303038152906040528051906020012060001c905090565b82805482825590600052602060002090810192821561064d579160200282015b8281111561064c5782518260006101000a81548173ffffffffffffffffffffffffffffffffffffffff021916908373ffffffffffffffffffffffffffffffffffffffff160217905550916020019190600101906105f4565b5b50905061065a919061065e565b5090565b5b8082111561069557600081816101000a81549073ffffffffffffffffffffffffffffffffffffffff02191690555060010161065f565b509056fe74686520616d6f756e742073686f756c64206265206d6f7265207468616e20302e31206574686572a2646970667358221220fb9937ccd66fb67d6311307a33ba7403623fe918755f4bbabe81e451479b248064736f6c634300060c0033",
  "immutableReferences": {},
  "source": "// SPDX-License-Identifier: MIT\npragma solidity ^0.6.0;\n\ncontract Lottery {\n    address public manager;\n    address[] public  players;\n    constructor() public {\n        manager = msg.sender;\n    }\n    modifier restricted() {\n        require(msg.sender == manager,\"only manager has access\");\n        _;\n    }\n    function balanceInPool()public view returns(uint){\n        return address(this).balance;\n    }\n    function enter() public payable {\n        require(msg.value > .01 ether,\"the amount should be more than 0.1 ether\");\n        players.push(msg.sender);\n    }\n    function random() private view returns (uint) {\n        return uint(keccak256(abi.encodePacked(block.difficulty,now,players)));\n    }\n    function pickWinner() public restricted {\n        uint index = random() % players.length;\n        address payable winner = payable(players[index]);\n        players = new address[](0);\n        winner.transfer(address(this).balance);\n    }\n\n    function getPlayers()public view returns(address[] memory){\n        return players;\n    }\n}",
  "sourcePath": "/home/cryptokowsik/Lottery-BSC/contracts/Lottery.sol",
  "compiler": {
    "name": "solc",
    "version": "0.6.12+commit.27d51765.Emscripten.clang"
  },
  "schemaVersion": "3.2.0",
  "updatedAt": "2021-04-18T12:13:35.411Z",
  "networkType": "ethereum",
  "devdoc": {
    "kind": "dev",
    "methods": {},
    "version": 1
  },
  "userdoc": {
    "kind": "user",
    "methods": {},
    "version": 1
  }
}