{
  "contractName": "Lottery",
  "abi": [
    {
      "inputs": [],
      "stateMutability": "nonpayable",
      "type": "constructor"
    },
    {
      "inputs": [],
      "name": "isGameEnded",
      "outputs": [
        {
          "internalType": "bool",
          "name": "",
          "type": "bool"
        }
      ],
      "stateMutability": "view",
      "type": "function",
      "constant": true
    },
    {
      "inputs": [],
      "name": "manager",
      "outputs": [
        {
          "internalType": "address",
          "name": "",
          "type": "address"
        }
      ],
      "stateMutability": "view",
      "type": "function",
      "constant": true
    },
    {
      "inputs": [],
      "name": "max_ticket_price",
      "outputs": [
        {
          "internalType": "uint256",
          "name": "",
          "type": "uint256"
        }
      ],
      "stateMutability": "view",
      "type": "function",
      "constant": true
    },
    {
      "inputs": [
        {
          "internalType": "uint256",
          "name": "",
          "type": "uint256"
        }
      ],
      "name": "players",
      "outputs": [
        {
          "internalType": "address",
          "name": "",
          "type": "address"
        }
      ],
      "stateMutability": "view",
      "type": "function",
      "constant": true
    },
    {
      "inputs": [],
      "name": "target_amount",
      "outputs": [
        {
          "internalType": "uint256",
          "name": "",
          "type": "uint256"
        }
      ],
      "stateMutability": "view",
      "type": "function",
      "constant": true
    },
    {
      "inputs": [],
      "name": "ticket_price",
      "outputs": [
        {
          "internalType": "uint256",
          "name": "",
          "type": "uint256"
        }
      ],
      "stateMutability": "view",
      "type": "function",
      "constant": true
    },
    {
      "inputs": [],
      "name": "balanceInPool",
      "outputs": [
        {
          "internalType": "uint256",
          "name": "",
          "type": "uint256"
        }
      ],
      "stateMutability": "view",
      "type": "function",
      "constant": true
    },
    {
      "inputs": [],
      "name": "enter",
      "outputs": [],
      "stateMutability": "payable",
      "type": "function",
      "payable": true
    },
    {
      "inputs": [
        {
          "internalType": "uint256",
          "name": "_ticketPrice",
          "type": "uint256"
        },
        {
          "internalType": "uint256",
          "name": "_ticketAmount",
          "type": "uint256"
        }
      ],
      "name": "initialize",
      "outputs": [],
      "stateMutability": "nonpayable",
      "type": "function"
    },
    {
      "inputs": [],
      "name": "pickWinner",
      "outputs": [],
      "stateMutability": "nonpayable",
      "type": "function"
    },
    {
      "inputs": [],
      "name": "getPlayers",
      "outputs": [
        {
          "internalType": "address[]",
          "name": "",
          "type": "address[]"
        }
      ],
      "stateMutability": "view",
      "type": "function",
      "constant": true
    }
  ],
  "bytecode": "0x60806040526001600560006101000a81548160ff02191690831515021790555034801561002b57600080fd5b50336000806101000a81548173ffffffffffffffffffffffffffffffffffffffff021916908373ffffffffffffffffffffffffffffffffffffffff1602179055506001600560006101000a81548160ff021916908315150217905550610f02806100966000396000f3fe60806040526004361061009c5760003560e01c806381e0ffae1161006457806381e0ffae146101645780638b5b9ccc1461018f578063c085ecc8146101ba578063e4a30116146101e5578063e97dcb621461020e578063f71d96cb146102185761009c565b80630efbaf0c146100a157806319d41c69146100cc578063481c6a75146100f75780635d495aea1461012257806366c31db714610139575b600080fd5b3480156100ad57600080fd5b506100b6610255565b6040516100c39190610c42565b60405180910390f35b3480156100d857600080fd5b506100e161025b565b6040516100ee9190610c42565b60405180910390f35b34801561010357600080fd5b5061010c610261565b6040516101199190610b6a565b60405180910390f35b34801561012e57600080fd5b50610137610285565b005b34801561014557600080fd5b5061014e6104b8565b60405161015b9190610c42565b60405180910390f35b34801561017057600080fd5b506101796104c0565b6040516101869190610c42565b60405180910390f35b34801561019b57600080fd5b506101a46104c6565b6040516101b19190610b85565b60405180910390f35b3480156101c657600080fd5b506101cf6105a4565b6040516101dc9190610ba7565b60405180910390f35b3480156101f157600080fd5b5061020c60048036038101906102079190610914565b6105b7565b005b6102166106c1565b005b34801561022457600080fd5b5061023f600480360381019061023a91906108eb565b6107ba565b60405161024c9190610b6a565b60405180910390f35b60045481565b60035481565b60008054906101000a900473ffffffffffffffffffffffffffffffffffffffff1681565b60008054906101000a900473ffffffffffffffffffffffffffffffffffffffff1673ffffffffffffffffffffffffffffffffffffffff163373ffffffffffffffffffffffffffffffffffffffff1614610313576040517f08c379a000000000000000000000000000000000000000000000000000000000815260040161030a90610c02565b60405180910390fd5b600560009054906101000a900460ff16610362576040517f08c379a000000000000000000000000000000000000000000000000000000000815260040161035990610bc2565b60405180910390fd5b60006001805490506103726107f9565b61037c9190610d6b565b90506000600182815481106103ba577f4e487b7100000000000000000000000000000000000000000000000000000000600052603260045260246000fd5b9060005260206000200160009054906101000a900473ffffffffffffffffffffffffffffffffffffffff169050600067ffffffffffffffff811115610428577f4e487b7100000000000000000000000000000000000000000000000000000000600052604160045260246000fd5b6040519080825280602002602001820160405280156104565781602001602082028036833780820191505090505b506001908051906020019061046c92919061082f565b508073ffffffffffffffffffffffffffffffffffffffff166108fc479081150290604051600060405180830381858888f193505050501580156104b3573d6000803e3d6000fd5b505050565b600047905090565b60025481565b6060600560009054906101000a900460ff1615610518576040517f08c379a000000000000000000000000000000000000000000000000000000000815260040161050f90610be2565b60405180910390fd5b600180548060200260200160405190810160405280929190818152602001828054801561059a57602002820191906000526020600020905b8160009054906101000a900473ffffffffffffffffffffffffffffffffffffffff1673ffffffffffffffffffffffffffffffffffffffff1681526020019060010190808311610550575b5050505050905090565b600560009054906101000a900460ff1681565b60008054906101000a900473ffffffffffffffffffffffffffffffffffffffff1673ffffffffffffffffffffffffffffffffffffffff163373ffffffffffffffffffffffffffffffffffffffff1614610645576040517f08c379a000000000000000000000000000000000000000000000000000000000815260040161063c90610c02565b60405180910390fd5b600560009054906101000a900460ff16610694576040517f08c379a000000000000000000000000000000000000000000000000000000000815260040161068b90610bc2565b60405180910390fd5b80600281905550816003819055506001600560006101000a81548160ff0219169083151502179055505050565b600560009054906101000a900460ff1615610711576040517f08c379a000000000000000000000000000000000000000000000000000000000815260040161070890610be2565b60405180910390fd5b6002543414610755576040517f08c379a000000000000000000000000000000000000000000000000000000000815260040161074c90610c22565b60405180910390fd5b6001339080600181540180825580915050600190039060005260206000200160009091909190916101000a81548173ffffffffffffffffffffffffffffffffffffffff021916908373ffffffffffffffffffffffffffffffffffffffff160217905550565b600181815481106107ca57600080fd5b906000526020600020016000915054906101000a900473ffffffffffffffffffffffffffffffffffffffff1681565b60004442600160405160200161081193929190610b31565b6040516020818303038152906040528051906020012060001c905090565b8280548282559060005260206000209081019282156108a8579160200282015b828111156108a75782518260006101000a81548173ffffffffffffffffffffffffffffffffffffffff021916908373ffffffffffffffffffffffffffffffffffffffff1602179055509160200191906001019061084f565b5b5090506108b591906108b9565b5090565b5b808211156108d25760008160009055506001016108ba565b5090565b6000813590506108e581610eb5565b92915050565b6000602082840312156108fd57600080fd5b600061090b848285016108d6565b91505092915050565b6000806040838503121561092757600080fd5b6000610935858286016108d6565b9250506020610946858286016108d6565b9150509250929050565b600061095c8383610980565b60208301905092915050565b6000610974838361099e565b60208301905092915050565b61098981610cff565b82525050565b61099881610cff565b82525050565b6109a781610cff565b82525050565b60006109b882610c82565b6109c28185610cb2565b93506109cd83610c5d565b8060005b838110156109fe5781516109e58882610950565b97506109f083610c98565b9250506001810190506109d1565b5085935050505092915050565b6000610a1682610c8d565b610a208185610cc3565b9350610a2b83610c6d565b8060005b83811015610a6357610a4082610dcb565b610a4a8882610968565b9750610a5583610ca5565b925050600181019050610a2f565b5085935050505092915050565b610a7981610d11565b82525050565b6000610a8c601483610cce565b9150610a9782610deb565b602082019050919050565b6000610aaf601983610cce565b9150610aba82610e14565b602082019050919050565b6000610ad2601783610cce565b9150610add82610e3d565b602082019050919050565b6000610af5602d83610cce565b9150610b0082610e66565b604082019050919050565b610b1481610d3d565b82525050565b610b2b610b2682610d3d565b610d61565b82525050565b6000610b3d8286610b1a565b602082019150610b4d8285610b1a565b602082019150610b5d8284610a0b565b9150819050949350505050565b6000602082019050610b7f600083018461098f565b92915050565b60006020820190508181036000830152610b9f81846109ad565b905092915050565b6000602082019050610bbc6000830184610a70565b92915050565b60006020820190508181036000830152610bdb81610a7f565b9050919050565b60006020820190508181036000830152610bfb81610aa2565b9050919050565b60006020820190508181036000830152610c1b81610ac5565b9050919050565b60006020820190508181036000830152610c3b81610ae8565b9050919050565b6000602082019050610c576000830184610b0b565b92915050565b6000819050602082019050919050565b60008190508160005260206000209050919050565b600081519050919050565b600081549050919050565b6000602082019050919050565b6000600182019050919050565b600082825260208201905092915050565b600081905092915050565b600082825260208201905092915050565b600073ffffffffffffffffffffffffffffffffffffffff82169050919050565b6000610d0a82610d1d565b9050919050565b60008115159050919050565b600073ffffffffffffffffffffffffffffffffffffffff82169050919050565b6000819050919050565b6000610d5a610d5583610dde565b610cdf565b9050919050565b6000819050919050565b6000610d7682610d3d565b9150610d8183610d3d565b925082610d9157610d90610d9c565b5b828206905092915050565b7f4e487b7100000000000000000000000000000000000000000000000000000000600052601260045260246000fd5b6000610dd78254610d47565b9050919050565b60008160001c9050919050565b7f47616d652069732072756e6e696e67206e6f772e000000000000000000000000600082015250565b7f47616d6520686173206e6f742073746172746564207965742e00000000000000600082015250565b7f6f6e6c79206d616e616765722068617320616363657373000000000000000000600082015250565b7f74686520616d6f756e7420646f65736e6f74206d61746368207769746820737460008201527f616e6461726420616d6f756e7400000000000000000000000000000000000000602082015250565b610ebe81610d3d565b8114610ec957600080fd5b5056fea2646970667358221220d087316fa1d9fca71dafc913a11a7ad63f01f311806491e92bd4e57446f4847d64736f6c63430008040033",
  "immutableReferences": {},
  "source": "// SPDX-License-Identifier: MIT\r\npragma solidity >=0.5.0 <0.9.0;\r\n\r\n// lottery contract\r\ncontract Lottery {\r\n    // manager address\r\n    address public manager;\r\n    // lottery players\r\n    address[] public  players;\r\n    // target amount of tickets\r\n    uint public target_amount;\r\n    // price of ticket\r\n    uint public ticket_price;\r\n    // max price of ticket\r\n    uint public max_ticket_price;\r\n    // check if game finished\r\n    bool public isGameEnded = true;\r\n\r\n    // add mapping\r\n    // mapping(address => bool) playerEntered;\r\n\r\n    // constructor\r\n    constructor() {\r\n        // define administrator with deployer\r\n        manager = msg.sender;\r\n        isGameEnded = true;\r\n    }\r\n\r\n    // role middleware\r\n    modifier restricted() {\r\n        require(msg.sender == manager,\"only manager has access\");\r\n        _;\r\n    }\r\n    // middleware to check if game is on or off\r\n    modifier onGame() {\r\n        require(!isGameEnded, \"Game has not started yet.\");\r\n        _;\r\n    }\r\n\r\n    // Get Balance of pool\r\n    function balanceInPool()public view returns(uint){\r\n        return address(this).balance;\r\n    }\r\n\r\n    // enter the game\r\n    function enter() public payable onGame{\r\n        // require(!playerEntered[msg.sender], \"You have already taken the ticket\");\r\n        require(msg.value == target_amount,\"the amount doesnot match with standard amount\");\r\n        players.push(msg.sender);\r\n        // playerEntered[msg.sender] = true;\r\n    }\r\n\r\n    // initialize the game\r\n    function initialize(\r\n        uint _ticketPrice,\r\n        uint _ticketAmount\r\n    ) public restricted {\r\n        // before init newly, previous game should be finished.\r\n        require(isGameEnded, \"Game is running now.\");\r\n\r\n        target_amount = _ticketAmount;\r\n        ticket_price = _ticketPrice;\r\n        isGameEnded = true;\r\n    }\r\n\r\n    function random() private view returns (uint) {\r\n        return uint(keccak256(abi.encodePacked(block.difficulty,block.timestamp,players)));\r\n    }\r\n\r\n    function pickWinner() public restricted {\r\n        require(isGameEnded, \"Game is running now.\");\r\n\r\n        uint index = random() % players.length;\r\n        address payable winner = payable(players[index]);\r\n        players = new address[](0);\r\n        winner.transfer(address(this).balance);\r\n    }\r\n\r\n    function getPlayers()public onGame view returns(address[] memory){\r\n        return players;\r\n    }\r\n}",
  "sourcePath": "F:/workBlockchain/demo/binance/tutor1/Lottery-BSC/contracts/Lottery.sol",
  "compiler": {
    "name": "solc",
    "version": "0.8.4+commit.c7e474f2.Emscripten.clang"
  },
  "schemaVersion": "3.4.1",
  "updatedAt": "2021-05-12T03:29:14.592Z",
  "networkType": "ethereum",
  "devdoc": {
    "kind": "dev",
    "methods": {},
    "version": 1
  },
  "userdoc": {
    "kind": "user",
    "methods": {},
    "version": 1
  }
}